:020000040800F2
:10000000F0060020A1010008BB200008C11F000865
:10001000B92000085D080008112800080000000051
:10002000000000000000000000000000692200083D
:10003000830A000800000000BD2000086B220008B1
:10004000BB010008BB010008BB010008BB010008A0
:10005000BB010008BB010008BB010008BB01000890
:10006000BB010008BB010008BB010008BB01000880
:10007000BB010008BB010008BB010008BB01000870
:100080003D0A0008490A0008BB010008BB0100083E
:10009000BB010008BB010008BB010008BB01000850
:1000A000BB010008BB010008BB010008BB01000840
:1000B000BB0100080000000000000000BB010008B8
:1000C000BB010008BB010008BB010008BB01000820
:1000D000BB010008BB010008BD270008BB010008E8
:1000E000BB010008BB010008000000000000000088
:1000F0000000000000000000000000000000000000
:1001000000000000BB01000800000000BB01000867
:100110000000000000000000BB010008BB01000857
:10012000BB010008BB010008BB010008BB010008BF
:10013000BB010008000000000000000000000000FB
:10014000BB010008BB010008BB0100080000000063
:10015000BB010008BB010008BB010008BB0100088F
:10016000BB010008BB010008BB0100080000000043
:10017000BB010008BB0100080000000000000000F7
:10018000BB010008BB010008BB010008DFF80CD070
:1001900000F052FB004800471D320008F006002026
:1001A0000648804706480047FEE7FEE7FEE7FEE711
:1001B000FEE7FEE7FEE7FEE7FEE7FEE7E1220008D6
:1001C0008D0100082DE9F05F0546002092469B4610
:1001D00088460646814640241BE02846414647465D
:1001E000224600F0CDF953465A46C01A914110D329
:1001F00011461846224600F0B4F92D1A67EB0108A3
:100200004F4622460120002100F0ABF917EB000910
:100210004E41201EA4F10104DFDC484631462A4647
:10022000434600F000B830BCBDE8C09FD2B201E048
:1002300000F8012B491EFBD270470022F6E710B5EB
:1002400013460A4604461946FFF7F0FF204610BD44
:1002500030B505462A460B4612F8010B13F8014B40
:1002600008B1A042F8D01CB1002802D06D1CF1E703
:10027000284630BD421C10F8011B0029FBD1801A12
:1002800070472DE9FE4F804681EA0300C00F0C46FF
:10029000009021F0004123F00045B8EB0200A94195
:1002A00005D24046214690461C460B46024623F0A6
:1002B0000040104347D0270DC7F30A00C3F30A518B
:1002C0000290401A019040286BDAC3F3130040F407
:1002D000801B0098924620B10023D2EB030A63EB07
:1002E0000B0B01985946C0F14002504600F039F915
:1002F00006460D4650465946019A00F051F910EB5A
:1003000008006141002487EA115284EAE7731A4326
:1003100040D0009A62B3019A012A4FEA075215DCD5
:10032000001B61EB02014FF0004202EA0752CDE9E7
:100330000042001C41F5801132462B4600F088F93E
:1003400003B000F045B840462146F9E7001B61EBD9
:100350000201001C41F5801300185B412018A2F532
:10036000001747EB030140EAD570B6196D4111E063
:100370006D084FEA360645EAC0754FEA0752001B82
:1003800061EB0201001C41F5801149084FEA300081
:100390000019514132462B4603B000F01CB800F062
:1003A00048B90098012240000023D0EB020263EB21
:1003B000E073009821464FEAE074B8EB000061EB6F
:1003C0000401E9E783F000435BE781F0004158E76F
:1003D00030BCBDE8C08F30BCBDE8C04FFFF7DFBF09
:1003E0002DE9F04D81EA030404F0004B21F00045B3
:1003F00014464FF0000A23F0004150EA050220D0D5
:1004000054EA01021DD0C5F30A570246C5F313038F
:10041000C1F31300C1F30A5640F4801543F480136E
:10042000A7EB0608101BD64608F2FD3873EB050053
:1004300002D308F1010801E092185B41B8F1000F06
:1004400003DA00200146BDE8F08D00204FF4801152
:10045000064684460EE0171B73EB050705D3121BF7
:1004600063EB050306434CEA010C49084FEA3000F0
:1004700092185B4150EA0107EDD152EA030012D015
:1004800082EA040083EA0501084305D0101BAB4152
:1004900006D20122002306E000224FF0004302E0D2
:1004A0006FF0010253101AEB06004CEB085110EBF1
:1004B0000A0041EB0B01BDE8F04D00F0BAB80EB5F3
:1004C00040F2334102910021CDE900110A460B466A
:1004D00000F0BEF803B000BD00F0004230F0004074
:1004E0000AD0C10D01F56071C0F3160042EA015156
:1004F000C20840071143704700200146704701F0D1
:10050000004330B421F0004150EA010206D00A0D48
:10051000A2F56072C1F31301002A02DC30BC002096
:100520007047440F44EAC104C100E01830BC00EB3E
:10053000C25000F047B830B50B46014600202022DB
:10054000012409E021FA02F59D4205D303FA02F5E0
:10055000491B04FA02F52844151EA2F10102F1DC40
:1005600030BD202A04DB203A00FA02F10020704757
:100570009140C2F1200320FA03F3194390407047E1
:10058000202A04DB203A21FA02F00021704721FAE8
:1005900002F3D040C2F1200291400843194670474F
:1005A000202A06DBCB17203A41FA02F043EAE07337
:1005B00006E041FA02F3D040C2F120029140084324
:1005C000194670470029A8BF7047401C490008BF62
:1005D00020F00100704710B4B0FA80FC00FA0CF073
:1005E00050EA010404BF10BC704749B1CCF12004AB
:1005F00021FA04F411FA0CF118BF01212143084338
:10060000A3EB0C01CB1D4FEA00614FEA102042BF63
:10061000002010BC704700EBC35010440029A4BF59
:1006200010BC7047401C490008BF20F0010010BCFE
:10063000704710B5141E73F1000408DA401C41F134
:10064000000192185B411A4301D120F0010010BD56
:100650002DE9F04D92469B4611B1B1FA81F202E0CC
:10066000B0FA80F220329046FFF77BFF04460F4637
:1006700040EA0A0041EA0B0153465A46084313D0A8
:10068000114653EA010019D0C8F140025046FFF765
:1006900077FF05460E46504659464246FFF761FF32
:1006A000084305D0012004E020463946BDE8F08D1E
:1006B0000020054346EAE0762C4337430A98630559
:1006C000E40AA0EB08000022FD0A44EA47540A307D
:1006D00002D500200146E9E7010510196941DDE96D
:1006E000084500196941BDE8F04DA2E72DE9FE4F2C
:1006F00081EA030404F0004421F0004100944FF02B
:10070000000B23F0004350EA01045ED052EA0304D8
:100710005BD0C3F30A54C1F30A552C44A4F2F3345A
:100720000194A0FB0254C1F3130141F48011C3F3FF
:10073000130343F4801301FB024400FB034E840ABD
:10074000970A44EA815447EA8357A4FB0768029555
:100750008D0A05FB07854FEA932C04FB0C542705F3
:10076000029D4FEA065847EA1637B5EB08056EEBCF
:10077000070C870E920E47EA811742EA8312A7FB05
:100780000201B6EB0B0164EB00042B0D43EA0C33C2
:100790005E1844EB1C50DA465146E7FB0201C5F3F4
:1007A00013044FEA0B3343EA14534FEA0432019C1B
:1007B00043EA0603A4F10C040294009CCDE900B4C2
:1007C000FFF746FF03B000F003B800200146F9E749
:1007D00030BCBDE8C08FC1F30A52C1F3130140F22F
:1007E000FF3341F480119A4202DA0020014670473B
:1007F00040F233439A42A2F2334202DC5242FFF704
:10080000BFBEFFF7AEBE000030B5041E71F100049C
:1008100004DB4FF00044404264EB0101141E73F10D
:10082000000405DB1C464FF00043524263EB040317
:10083000994208BF904230BD064C074D06E0E06883
:1008400040F0010394E8070098471034AC42F6D317
:10085000FFF7A0FC5439000874390008FEE70000D7
:100860002DE9F04782462DED048B82B000204FF039
:1008700090458946009001902968284621F440312E
:100880002960296841F4803129604FF48076002284
:10089000314600F031FB5548401EFDD20122314661
:1008A0002C46284600F028FB1E2002F05CFC206845
:1008B00020F440302060206820603146204600F05F
:1008C00016FB00287ED134462146284600F00FFB57
:1008D0000028F9D0264631462C46284600F007FB72
:1008E0000128F8D00025B046002006464006070E35
:1008F0004146204600F0FBFA0028F9D0282002F0FB
:1009000032FC4146204600F0F2FA012835D00020A2
:10091000761C3843F6B2082EE8D30DF805006D1C9E
:10092000EDB2052DE0D345462946204600F0DFFA1A
:100930000028F9D02168204621F440312160216847
:1009400041F4803121600122294600F0D5FA9DF85A
:1009500000109DF801009DF802209DF8033001442D
:100960001A4411449DF80420C9B28A420DD00120D6
:1009700002B0BDEC048BBDE8F0874146204600F094
:10098000B6FA0128F9D00120C2E7FFF798FD9FEDE4
:10099000189B53EC192BFFF723FD41EC180B9DF826
:1009A0000000FFF78CFD53EC182BFFF76AFCFFF7F4
:1009B000A6FDC9F800009DF80300FFF780FD53EC89
:1009C000192B00E00FE0FFF70BFD41EC180B9DF831
:1009D0000200FFF774FD53EC182BFFF752FCFFF7F2
:1009E0008EFDCAF800000020C2E70000B0890700B1
:1009F000000000000000244030B50F4887B0C16CF3
:100A000041F00101C164C06C4FF4807400F001003A
:100A100005900120CDE90040029000204FF0904564
:100A200003906946284600F083F9002221462846B3
:100A300000F062FA07B030BD00100240014800F03B
:100A400070B8000060020020014800F06AB80000A1
:100A5000A802002030B590F8444004F01C050124A1
:100A6000AC40056C6C60046863608368102B03689D
:100A700003D099600068C26030BD9A600068C160B0
:100A800030BD7047704710B590F82510002202293C
:100A900005D00421C16380F82420012010BD016825
:100AA0000B6823F00E030B6001680B6823F0010351
:100AB0000B6090F84410046C01F01C03012101FA52
:100AC00003F3636080F8251080F82420104610BDE1
:100AD00010B590F825100024022903D00421C16329
:100AE00001241AE001680A6822F00E020A60016817
:100AF0000A6822F001020A6090F84410036C01F0C9
:100B00001C02012101FA02F25A6080F8251000212E
:100B100080F82410816B01B18847204610BDC06B5E
:100B20007047F0B4016C0C6801680D6890F84420BF
:100B300002F01C06042202FA06F3234211D06B07CE
:100B40000FD50B689B0603D40B6823F004030B60DE
:100B500090F8441001F01C018A40016C4A60016B5E
:100B60001DE0022303FA06F727424FF0000C4FF076
:100B7000010218D0AF0716D50C68A40605D40C687E
:100B800024F00A040C6080F8252090F8441001F04D
:100B90001C018B40016C4B6080F824C0C16A0029A5
:100BA0001AD0F0BC08470823B340234214D02B07C7
:100BB00012D50B6823F00E030B6090F84410036C01
:100BC00001F01C0102FA01F15960C26380F825208E
:100BD00080F824C0416BE2E7F0BC704770B568B1A3
:100BE0002B4C036814212B4AA34209D22A4C1C44E3
:100BF000B4FBF1F18900C0E910210BE0012070BDC8
:100C0000234C64421C44B4FBF1F189004164204947
:100C100008390164022180F825101C6847F6F0713C
:100C20008C43D0E902152943D0E9045635432943C2
:100C300085692943C5692943056A29432143196008
:100C40008168B1F5804F19D0036C0F21934202D116
:100C500052F8A83F02E00E4AA032136890F84440D0
:100C600004F01C04A1408B43136090F844304168A9
:100C700003F01C0399401368194311600021C163FC
:100C8000012280F8252080F82410084670BD00005D
:100C90000804024000000240F8FFFDBF70B50446A2
:100CA00090F82400002501280CD0012084F82400AD
:100CB00094F825600020012E06D084F82400022537
:100CC000284670BD022070BD022684F82560E063CE
:100CD0002068066826F0010606602046FFF7BAFE87
:100CE000206B00282068016802D041F00E0106E068
:100CF00021F0040101602068016841F00A010160EF
:100D00002068016841F001010160D9E770B504462F
:100D100000F0F8F80546601C02D00448007804444E
:100D200000F0F0F8401BA042FAD370BD1C00002078
:100D30002DE9FC4FDFF894A1002301250AF1040BF3
:100D400003244FF00F0C0BF1040EB8E005FA03F684
:100D500032406FD04F68012F05D0022F03D0112FE2
:100D600001D0122F17D1D0F808905F0004FA07F8CD
:100D700029EA08090097D1F80C8008FA07F848EA30
:100D80000908C0F808804768B7430E79C6F3001613
:100D90009E403E434660C6684FEA430804FA08F79F
:100DA000BE4301978F6807FA08F73743C7604E685C
:100DB000022E01D0122E13D1DE0800EB860600961B
:100DC000366A5F07FF0E0CFA07F926EA0906D1F822
:100DD000109009FA07F949EA0609009EC6F8209022
:100DE0000668019FBE430F7907F0030707FA08F76B
:100DF000374307604E68F60060D5354E376E47F0D2
:100E000001073766366E23F0030706F001060096E9
:100E1000304E3E44B146B6689F074FEA17780CFA49
:100E200008F7BE43B0F1904F05D02B4FB84204D124
:100E3000012712E042E000270FE0284FB84201D11D
:100E400002270AE0264FB84201D1032705E0254FCB
:100E5000B84201D1042700E0072707FA08F7374313
:100E6000C9F80870DAF800605746D1F80480964354
:100E70005FEAC83800D516433E60DBF800605F4685
:100E8000D1F8048096435FEA883800D516433E6067
:100E9000DEF800607746D1F8048096435FEAC82800
:100EA00000D516433E60094F0C373E68D1F80480E8
:100EB00096435FEA882800D516433E605B1C0A68AB
:100EC00032FA03F67FF442AF00F00EB8000401409E
:100ED00000100240000001400004004800080048E3
:100EE000000C0048001000481CBCBDE8E08F006901
:100EF000084000D0012070470AB1816170478162CB
:100F00007047000001488068704700001C00002006
:100F10000248816802781144816070471C000020FB
:100F200010B50024032000F071F8002000F008F84C
:100F300008B1012401E000F025F8204610BD0000B2
:100F400070B50E4E05460024307898B14FF47A7192
:100F5000B1FBF0F00A490968B1FBF0F000F0BEFD0A
:100F600040B9102D06D200222946501E00F02EF85E
:100F7000756000E00124204670BD00001C000020C8
:100F800028000020094808B5016E41F00101016602
:100F9000016E01F001010091816D41F08051816588
:100FA000806D00F08050009008BD000000100240ED
:100FB000002809DB00F01F02012191404009800058
:100FC00000F1E020C0F8001170470000F0B40E4BB3
:100FD0001B680C46C3F30223C3F10705042D00D997
:100FE0000425191D072901D2002300E0DB1E01267C
:100FF00006FA05F1491E214099409E40761E164092
:101000003143F0BC01F02ABC0CED00E0064900F0D1
:10101000070208684FF6FF03184040EA0220034A1F
:1010200010430860704700000CED00E00000FA0576
:101030001649B0F5007F0868C0F3412009D00228A6
:1010400005D0086820F4C06040F48060086000208B
:1010500070470128FBD0086820F4C06040F400709D
:1010600008600B483222006850430A4AB0FBF2F095
:10107000401C00E0401E4A69520501D50028F9D104
:1010800048694005E3D50320704700000070004028
:101090002800002040420F000248006800F4C060B1
:1010A00070470000007000402DE9F84F044600270B
:1010B0000088A84D3E46000515D5606C60B1B0F5BE
:1010C000000F04D0B0F5400F2BD001270AE0E868EC
:1010D00040F48030E86024E00021201D00F0F0FFA3
:1010E00007001ED03E46206880033AD5A86D4FF019
:1010F0000008C00009D4A86D40F08050A865A86D14
:101100004FF0010800F080500090DFF84CA2DAF8B0
:10111000001041F48071CAF80010FFF7F3FE814619
:1011200010E0D5F88800616C20F440000843C5F851
:101130008800D8E7FFF7E6FEA0EB0900022801D9F6
:10114000032705E0DAF80000C005F3D5002F7DD0B5
:101150004FEA0706B8F1000F03D0A86D20F08050C9
:10116000A8652078C00707D0D5F88800216A20F04C
:1011700003000843C5F888002078800707D5D5F814
:101180008800616A20F00C000843C5F888002078C8
:10119000400707D5D5F88800A16A20F03000084341
:1011A000C5F888002078800607D5D5F88800E16A60
:1011B00020F440600843C5F888002088800507D5E2
:1011C000D5F88800E16B20F440200843C5F888007A
:1011D0002088400507D5D5F88800216C20F4401000
:1011E0000843C5F888002078400607D5D5F8880060
:1011F000216B20F440500843C5F888002078000691
:1012000007D5D5F88800616B20F440400843C5F845
:1012100088002088C00507D5D5F88800A16B20F488
:1012200040300843C5F8880020684FF0006700038D
:101230004FF0806850D5D5F88800A16C20F0406050
:101240000843C5F88800A06CB84200E005E03BD137
:10125000E86840F48010E8603EE0D5F8900010F4B3
:10126000407014D0A16D814211D0D5F89000D5F80E
:10127000901020F4407041F48031C5F89010D5F8FA
:10128000901021F48031C5F89010C5F89000C00787
:1012900011D0FFF737FE074641F2883907E000BF5B
:1012A000FFF730FEC11B494501D9032652E7D5F8A7
:1012B00090008007F4D5D5F89000A16D20F440701F
:1012C0000843C5F8900045E7404505D10121201DA0
:1012D00000F0F6FE00B106462068400317D5D5F8A9
:1012E0008800E16C20F040600843C5F88800E06C9D
:1012F000B84204D1E86840F48010E86007E0404557
:1013000005D10121201D00F0DBFE00B1064620883A
:10131000400411D5D5F88800216D20F040500843D5
:10132000C5F88800206DB0F1805F05D10221201D35
:1013300000F0C6FE00B106462088000406D555F828
:10134000880F616D20F0804008432860304600F02F
:1013500005B80000001002400070004018BCBDE855
:10136000E08F00002DE9F0470F46050058D0404EB1
:10137000306800F00700B84209D2306820F007005A
:1013800038433060306800F00700B84248D1287810
:10139000384CC0072CD06868032811D0022812D01E
:1013A000216898B1490500293ADAA16821F00301C2
:1013B0000143A160FFF7A6FD804641F2883910E0A5
:1013C00021688901EFE721688903ECE78907EAE7EB
:1013D000FFF798FDA0EB0801494502D90320BDE8BD
:1013E000F087A068696800F00C00B0EB810FEFD1C6
:1013F0002878800705D5A068A96820F0F000084388
:10140000A060306800F00700B8420BD9306820F0C7
:10141000070038433060306800F00700B84201D060
:101420000120DCE72878400705D5A068E96820F4AA
:10143000E0600843A0602878000706D5A068296905
:1014400020F4605040EAC100A06000F03FF8A168BD
:10145000094AC1F30311515C01F01F01C84007495B
:10146000086007480068BDE8F047FFF769BD000065
:101470000020024000100240D4380008280000205C
:10148000200000200548064900688968054AC1F324
:101490000221515C01F01F01C84070472800002064
:1014A00000100240143900080548064900688968A0
:1014B000054AC1F3C221515C01F01F01C8407047C9
:1014C00028000020001002401439000870B525499A
:1014D000002318468A68CC6812F00C0204F0030658
:1014E000214C4FEA640509D00C2A05D0042A32D0D9
:1014F000082A00D1284670BD012E10D10B681B07A9
:1015000004D4D1F89430C3F3032302E00B68C3F38F
:101510000313164E56F82330DAB10C2AEBD1C86803
:1015200000F00300022818D0032818D01846CA6813
:10153000CB68C2F30212C3F306234343521CB3FB2E
:10154000F2F2C868C0F34160401C4000B2FBF0F00A
:1015500070BD184670BD204670BD2046E7E728469E
:10156000E5E70000001002400024F400E438000821
:101570002DE9F84304006FD0FE4DA86800F00C067A
:10158000E86800F003072078C00664D576B10C2E19
:1015900001D1012F0AD0A069002828687AD040F034
:1015A00001002860FFF7AEFC80465DE028688007F8
:1015B00002D5A0690028DED0216A2868000703D57B
:1015C000286800F0F00004E0D5F89400F02202EA68
:1015D0001010814216D9084600F008FE00283BD1C1
:1015E000286840F0080028602868216A20F0F00090
:1015F000084328606868E16920F47F4040EA0120E0
:10160000686016E0286840F0080028602868216AB1
:1016100020F0F000084328606868E16920F47F400A
:1016200040EA0120686026B9206A00F0DFFD00284A
:10163000D5D1FFF74BFFA968CF4AC1F30311515C25
:1016400001F01F01C840CD490860CD480068FFF790
:1016500077FC00287ED12EE0CAE000BFFFF752FCE5
:10166000A0EB0800022876D828688007F6D52868FD
:1016700040F0080028602868216A20F0F000084344
:1016800028606868E16920F47F4040EA01206860D2
:1016900011E0FFE720F001002860FFF733FC8046EF
:1016A00006E000BFFFF72EFCA0EB08000228DAD806
:1016B00028688007F6D42078C00740D0082E18D0BC
:1016C0000C2E01D1032F14D06068B0F5803F17D0E5
:1016D000B0F5A02F286817D020F480302860286843
:1016E00020F4802028606068E0B1FFF70BFC8046A2
:1016F00014E02868800322D56068002878D01EE0B6
:10170000286840F48030EDE740F480202860F7E757
:10171000FFF7F8FBA0EB08006428A4D82868800332
:10172000F6D50CE0FFF7EEFB804605E0FFF7EAFB9D
:10173000A0EB0800642896D828688003F6D42078A7
:1017400080073BD5042E11D00C2E01D1022F0DD0D5
:10175000E06801E0B6E1FFE0002828681ED040F410
:1017600080702860FFF7CEFB07460CE02868400534
:101770000CD5E0680028C1D008E000BFFFF7C2FB2D
:10178000C01B022893D828684005F7D56868217CDB
:1017900020F0FE4040EA016068600FE020F48070B5
:1017A0002860FFF7AFFB074605E000BFFFF7AAFB85
:1017B000C01B0228B1D828684005F7D4207800075C
:1017C00029D560690028D5F8940012D040F00100B6
:1017D000C5F89400FFF796FB074604E0FFF792FB7D
:1017E000C01B022899D8D5F894008007F6D512E0DE
:1017F0002BE120F00100C5F89400FFF783FB0746BA
:1018000005E000BFFFF77EFBC01B022885D8D5F896
:1018100094008007F6D42078400766D5A86D00278D
:10182000C00008D4A86D40F08050A865A86D0127BD
:1018300000F08050009053480168C90512D4016837
:10184000814641F480710160FFF75CFB804605E052
:10185000FFF758FBA0EB080002287DD8D9F800005C
:10186000C005F5D5A068012816D00528D5F8900048
:1018700017D020F00100C5F89000D5F8900020F0B6
:10188000040000BFC5F89000A06841F28839C0B1DB
:10189000FFF738FB80460FE0D5F8900040F00100DC
:1018A000F0E740F00400C5F89000F5E7FFF72AFBE9
:1018B000A0EB080149454FD8D5F890008007F5D531
:1018C0000EE0FFF71FFB804606E000BFFFF71AFBA4
:1018D000A0EB080149453FD8D5F890008007F5D422
:1018E0001FB1A86D20F08050A8652078800628D50B
:1018F000606A0028D5F8980012D040F00100C5F8C1
:101900009800FFF7FFFA074605E000BFFFF7FAFA75
:10191000C01B022820D8D5F898008007F6D510E023
:1019200020F00100C5F89800FFF7ECFA074604E044
:10193000FFF7E8FAC01B02280ED8D5F898008007F8
:10194000F6D4A06AA8B1022824D00C2E7DD0286835
:1019500020F08070286000E0B3E02868000103D424
:10196000E86820F00300E860E86807490840E8609C
:101970000CE09FE000100240D4380008280000204E
:101980002000002000700040FFFFEEFEFFF7BAFAD3
:10199000044699E0E868E26A00F00301914226D12A
:1019A000216B00F070020901103991421FD1626B66
:1019B00000F4FE41B1EB022F19D194F8382000F069
:1019C0007841B1EBC26F12D1A18F00F4C002490877
:1019D0004905A1F50011914209D194F8401000F099
:1019E000C06049084906A1F1007181424BD00C2E1C
:1019F0006FD0286840016CD4286820F0807028607F
:101A0000FFF780FA064604E0FFF77CFA801B022805
:101A100057D828688001F7D4F4E90B016FF00F0262
:101A200002EB01110843218A5204490802EB41519B
:101A3000A26841EA02210843217D4FF07E42490815
:101A400002EB41610843217B00E042E040EAC160D3
:101A5000E968214A11400843E860286840F0807036
:101A60002860E86840F08070E860FFF74BFA0446B1
:101A700005E000BFFFF746FA001B022821D82868BE
:101A80008001F7D523E02868800120D4286840F041
:101A900080702860E86840F08070E860FFF732FAF4
:101AA000044604E0FFF72EFA001B022809D8286834
:101AB0008001F7D50BE000BFFFF724FA001B0228D6
:101AC00002D90320BDE8F88328688001F4D40020FF
:101AD000F8E70120F6E700008C809D0110B5401E5C
:101AE000B0F1807F01D3012010BD4FF0E024606190
:101AF0000F21601700F0B2FE0020A06107202061D6
:101B0000002010BD704770B5416F0446856F0068B6
:101B100082684FF01006120612D5212910D1816873
:101B200021F080018160A06E38B1FEF7ACFF20B1DA
:101B3000A06EFEF7F4FF20281BD0204600F0E2FC48
:101B400020688168490612D5222D10D1816821F0C4
:101B500040018160E06E38B1FEF795FF20B1E06E84
:101B6000FEF7DDFF202804D0204600F0BCFC00205A
:101B700070BDE667032070BD704700002DE9F0419D
:101B800002680446D0691168936840F60F05284240
:101B90004FF0000505D186067BD58E0679D5216EDE
:101BA00088E04D4F03F001060F40374371D0C7075F
:101BB00007D0CF0505D501271762E26F42F0010279
:101BC000E267820708D5DA0706D0276802223A6260
:101BD000E26F42F00402E267420708D5DA0706D056
:101BE000236804221A62E26F42F00202E2670207EF
:101BF0000AD501F02002324306D0236808221A6277
:101C0000E26F42F00802E267020509D54A0107D5F2
:101C100023684FF400621A62E26F42F02002E2672A
:101C2000E26F002A2ED0800605D5880603D5216EE6
:101C300009B120468847E06F21688968490602D4C7
:101C400010F0280F20D0204600F04DFC206881685D
:101C5000490614D5816821F040018160E06E70B1C1
:101C60001E498163E06EFEF733FF00280AD0E06E64
:101C7000816B00E02046BDE8F041084709E02046BE
:101C8000FFF77AFFBDE8F0812046FFF775FFE567B3
:101C9000F8E7C60209D55B0207D54FF48010106241
:101CA0002046BDE8F041FFF72DBF030605D50B0622
:101CB00003D5616E0029DDD1E4E74006E2D5480690
:101CC000E0D51168204621F04001116020216167B4
:101CD000656600F074F9D5E720010004452400088A
:101CE00010B5040002D0606F10B107E0012010BDF4
:101CF000002084F87000204600F026F82420606759
:101D00002068016821F001010160204600F002FC1A
:101D10000128ECD0606A10B1204600F003FB206877
:101D2000416821F4904141602068816821F02A01D6
:101D300081602068016841F0010101602046BDE832
:101D4000104000F053BB00002DE9F04387B005467A
:101D500014216846FEF771FA3C4F2B683C4803217A
:101D6000072200240226BB4251D1836D43F4003385
:101D70008365836D03F400330593C36C43F0010363
:101D8000C364C06C029400F001000590CDE9031219
:101D90000C20CDE9000669464FF09040FEF7C8FFE1
:101DA0002D4F2C484FF080093860C7E90164C7E91E
:101DB00003497C614FF48058BC61C7E90748384645
:101DC000FEF70CFF08B1FEF75DFEEF66BD6221482D
:101DD000224F1430E7E802061020A7E811021F483E
:101DE00047F81449BC61C7E90748FEF7F7FE08B198
:101DF000FEF748FEAF66002211462620BD62FFF7BF
:101E0000E5F82620FFF7D4F807B0BDE8F083144DBD
:101E1000AB42F9D1836D43F480238365836D03F472
:101E200080230593C36C43F00403C364C06C029425
:101E300000F004000590CDE903123020CDE9000642
:101E400069460848FEF774FFDEE7000000440040E2
:101E5000001002406C00024060020020A802002036
:101E6000004800400008004870B50446806F2028F4
:101E70003FD149B342B394F87000012839D0012012
:101E800084F870006165A4F858200025E5672220D9
:101E9000A067E06ED0B11849C162E16E17481346E1
:101EA0000863E16E16484863E06E8563666D2168DD
:101EB00032462431E06EFEF7F1FE38B11020E067C3
:101EC00084F8705020206067012070BD84F8705045
:101ED0002068016841F4807101602068816841F0E8
:101EE000010181602068816841F04001816000202B
:101EF00070BD022070BD0000A1240008DD24000890
:101F000059240008704770472DE9F8430446406F94
:101F10001F4616460D4620284FD1CDB1C6B194F8C4
:101F20007000012849D0012084F870004FF00008AB
:101F3000C4F87C8021206067FEF7E4FFA4F85060BD
:101F40008146A4F85260A068B0F5805F03D004E039
:101F50000120BDE8F883206928B12E465FF0000516
:101F600084F8708010E00026FAE78021204600F017
:101F7000D3FBB8B9C6B116F8010B21680885B4F8CF
:101F80005200401EA4F85200B4F852004B464FF0E5
:101F9000000200970028E8D14FF04001204600F0F1
:101FA000BBFB30B10320D4E735F8020BC0F30800C7
:101FB000E3E7202060670020CBE70220C9E77047F5
:101FC000FEE70000F0B587B014216846FEF735F94A
:101FD0002148C16C41F08001C164C16C01F08001F5
:101FE0000591C16C41F00101C164C16C01F00101B6
:101FF0000591C16C41F00401C164C16C01F00401A0
:102000000591C16C41F00801C164C06C4FF090466D
:1020100000F008000590002202213046FEF76CFF18
:102020000E4F01221C213846FEF766FF01240220D4
:10203000CDE90004002569463046CDE90245FEF7AA
:1020400077FE1C20CDE9000469463846CDE90245FB
:10205000FEF76EFE07B0F0BD00100240000C004815
:102060000948084901604FF4E13141600021816075
:102070000C22C160C0E904128161C1610162416248
:10208000FFF72EBE00440040F80000200948084930
:1020900001604FF4E1314160002181600C22C16098
:1020A000C0E904128161C16101624162FFF718BE9B
:1020B0000048004078010020FEE7704770470000AC
:1020C0002DE9F041444C05468846E068002681072A
:1020D00028680DD0E16801F00301814216D1A8B152
:1020E000E0686968C0F30210401C88420ED120E00D
:1020F000012804D0022805D0032807D108E0216870
:10210000890701E021684905002907DB01265FE016
:102110002168890302D421684903F5E7E1686A6808
:102120006FF00F0321F0730103EB0212114301431F
:10213000E160206820F080602060FEF7E3FE074643
:1021400005E000BFFEF7DEFEC01B022837D820687E
:102150000001F7D4B8F1000F18D0B8F1010F1DD06D
:10216000287D4FF07E41400801EB4060A96840EABD
:1021700001202169194A114008432061206840F07C
:1021800080602060FEF7BEFE07461AE0A868297B43
:10219000000240EAC1602169114AECE7288A11492E
:1021A000400801EB4050A96840EA012021690E4A2D
:1021B000E1E700BFFEF7A6FEC01B022801D90326F7
:1021C00006E020680001F5D52069A969084320616F
:1021D0003046BDE8F081000000100240FF80FFF9AA
:1021E000FF80FF070000E0FFFF809FFFF8B51C4D58
:1021F00006460024A86DC00002D5FEF74DFF0DE095
:10220000A86D40F08050A865A86D00F08050009047
:10221000FEF742FFA96D21F08051A965B0F5007F5E
:1022200004D0802E07D94FF003040AE0802E08D98D
:10223000A02E01D804E001D1022402E0702E00D1CA
:1022400001240848016821F007012143016000686A
:1022500000F00700A04201D00120F8BD0020F8BD29
:1022600000100240002002407047FEF751BE10B53A
:10227000AEB044216846FDF7E0FF142128A8FDF721
:10228000DCFF5C2111A8FDF7D8FF01210804CDE98E
:102290000010022003240A90CDE90B4114210D9176
:1022A0000721CDE90E1010906846FFF761F90F2065
:1022B000CDE9280400242A942B94042128A82C94E6
:1022C000FFF750F806201B9411901A9411A8FEF7FE
:1022D000EBFE4FF40070FEF7ABFE2EB010BD000019
:1022E0000D48016841F4700101600C48016841F03B
:1022F00001010160002181600268094B1A400260FF
:102300008214C260026822F4802202608161024964
:10231000C00380390860704788ED00E0001002407B
:10232000FFFFF6EA90F82410C90706D001684A6852
:10233000836A22F400321A434A6090F82410890715
:1023400006D501684A68C36A22F480321A434A609B
:1023500090F82410490706D501684A68036B22F4F7
:1023600080221A434A6090F82410090706D50168B4
:102370004A68436B22F400421A434A6090F82410E2
:10238000C90606D501688A68836B22F480521A4315
:102390008A6090F82410890606D501688A68C36BA4
:1023A00022F400521A438A6090F82410490611D58D
:1023B00001684A68036C22F480121A434A60016C77
:1023C000B1F5801F06D101684A68436C22F4C0024F
:1023D0001A434A6090F82410090606D501684A6835
:1023E000806C22F4002202434A607047F8B5002650
:1023F0000446C667FEF786FD0546206800686FF054
:102400007E47000708D52B4600224FF400112046D6
:10241000009700F081F960B92068006840070AD58C
:102420002B4600224FF480012046009700F074F9FB
:1024300008B10320F8BD20206067A06784F87060B1
:102440000020F8BD10B5806A0021A0F85A10A0F84D
:102450005210FFF791FB10BD70B5846A606FA56FD5
:10246000216889684FF00006090606D5212804D1A5
:10247000A4F85260204600F045F8206880684006C5
:1024800006D5222D04D1A4F85A60204600F02BF87E
:10249000E06F40F01000E0672046FFF76DFB70BD75
:1024A00010B50146806A09680968890613D40021BD
:1024B000A0F85A1001680A6822F480720A60016864
:1024C0008A6822F001028A6001688A6822F040026C
:1024D0008A6020218167FFF715FD10BD10B5806A65
:1024E000FFF711FD10BD01680A6822F490720A60BE
:1024F00001688A6822F001028A6020218167002138
:102500000166704701680A6822F0C0020A60202153
:10251000416770472DE9F0410446016880682269EF
:10252000E3691043626900251A431043724F0A6839
:10253000724B1A4002430A6020684168E26821F445
:102540004051114341602168A069B94201D0226A1B
:1025500010438A6822F4306202438A606849236823
:1025600068488B420DD1D0F8880010F0030006D0E7
:10257000012847D0022843D0032830D144E001216C
:102580002EE061498B420BD1D0F8880010F00C008E
:1025900034D0042836D0082832D00C281FD133E09C
:1025A0005A498B420BD1D0F8880010F0300025D06A
:1025B000102827D0202823D0302810D124E0BB4277
:1025C0000DD1D0F8880010F4406017D0B0F5806FBE
:1025D00018D0B0F5006F13D0B0F5406F14D01021B3
:1025E0004B4A00264FF40040BB422FD171B1022963
:1025F0000FD004290FD0082975D10FE00021EFE793
:102600000221EDE70421EBE70821E9E7FEF73AFFB5
:1026100003E0104602E0FEF759FFE0B3626802EB08
:10262000420181425FD8B0EB023F5CD8010E00024C
:1026300073084FEA3207C01959410023FDF7C2FD64
:10264000344AA0F5407191424FD94CE0E3694FF60E
:10265000EF77834229D1092945D2DFE801F0050847
:102660000B440D4444441000FEF70CFF06E0FEF757
:102670001BFF03E0104602E0FEF728FF58B14100BF
:10268000606801EB5001B1FBF0F080B2A0F11001E5
:10269000B94228D800E02AE04FF6F0710140C0F3BB
:1026A000420001432068C16021E009291BD2DFE814
:1026B00001F005080B1A0D1A1A1A1000FEF7E2FEB7
:1026C00006E0FEF7F1FE03E0104602E0FEF7FEFE34
:1026D00068B1616800EB5100B0FBF1F080B2A0F18D
:1026E0001001B94201D9012501E02168C8602666C0
:1026F00028466666BDE8F08100800040F369FFEF80
:1027000000380140001002400044004000480040F2
:102710000024F400FFFC0F002DE9F0479A4617460D
:102720000E4604464FF000094FF02008089D39E09E
:10273000681C37D0FEF7E6FBA0EB0A00A84222D8BF
:102740000DB32068016849072CD5C069C043000556
:1027500028D421684FF4006008622068016821F4E1
:10276000D07101602068816821F001018160C4F8A6
:102770007480C4F87880C4F87C8000BF84F87090BE
:102780000320BDE8F0872068016821F4D071016062
:102790002068816821F001018160C4F87480C4F868
:1027A0007880EBE72068C06936EA000004D000209A
:1027B000B842BDD00020E4E70120F9E710B5124C83
:1027C0002068C169C943C90619D410210162204695
:1027D000FFF799F9E06E006840680022C0F16400DC
:1027E00081B20A48A0F86410425410F8661F6422AF
:1027F00041F08001017005492046FFF735FBBDE837
:1028000010400148FFF7BAB9F8000020F801002095
:10281000FEE700000FB4054B10B503A9044A029867
:1028200000F002F910BC5DF814FB000071310008E3
:102830002C0000200FB4084B10B504A902AA03987D
:1028400000F0F2F8044602A9002000F087FC2046C0
:1028500010BC5DF814FB00005D3100080907090E8B
:10286000002804DB00F1E02080F80014704700F03D
:102870000F0000F1E02080F8141D704702E008C846
:10288000121F08C1002AFAD170477047002001E0EA
:1028900001C1121F002AFBD1704700002DE9FF5F24
:1028A00082B00021DDE90430020DDDF840B00343C1
:1028B00018D044F61050A2F2FF324243151411987A
:1028C00001281FD0A5EB0B00401C5FEA000A4FF067
:1028D00000064E4FDFF83891B046504615D5CAF184
:1028E000000413E0119801244AA3012801D16FEAE2
:1028F0000B010298119AC0E90031C0E9024206B00A
:1029000000F08EB8CBF10000DFE704460021404A1A
:10291000491842EB0450CDE9001012E0E00707D05F
:1029200032463B4640464946FDF7E0FE8046894632
:1029300032463B4610461946FDF7D8FE06460F467E
:102940006410002CEAD1DDE90401DDE90023BAF1CD
:10295000000F06DAFDF7CAFE42464B46FDF7C6FEFB
:1029600005E0FDF73DFD42464B46FDF739FD0446C7
:102970000E460022284BFDF747FF03D84FF0FF30EB
:10298000014607E00022254B20463146FDF779FC41
:10299000FDF721FF102409E0002C0ADB0A220023A6
:1029A000FDF710FC039B30321A55641E50EA0102F9
:1029B000F2D1641C039AC4F111031444119A012A40
:1029C00003D0012208430DD10AE0084304D00020BF
:1029D0004FF0110B119072E7A3EB0B056D1E0DE08C
:1029E0005B4504DD4FF0000205F1010504E003DA68
:1029F0004FF00002A5F10105002AECD002981199D0
:102A0000C0E90231C0E9004579E700000000144048
:102A10000000F03F300000000000F0430000E03F05
:102A200030BCBDE8C09F00002DE9FF4F95B09B462C
:102A30008946064600250FE2252877D1002427463F
:102A4000F84A0121059400E0044316F8013F203BB9
:102A500001FA03F01042F7D130782A2811D06FF034
:102A60002F033078A0F13002092A16D8059A44F0D5
:102A7000020402EB820203EB42021044761C059032
:102A8000EFE759F8042B0592002A03DA504244F488
:102A90000054059044F00204761C30782E2816D19C
:102AA00016F8010F44F004042A280DD06FF02F020D
:102AB0003078A0F13003092B09D807EB870302EB2C
:102AC0004303C718761CF3E759F8047B761C30786B
:102AD0006C280FD006DC4C2817D068280DD06A2847
:102AE00014D104E0742810D07A280FD10DE044F4FA
:102AF00000140AE044F4801401E044F440147278B5
:102B0000824202D104F58014761C761C3078662847
:102B10000BD013DC582877D009DC002875D0452865
:102B2000F6D04628F4D047281AD19DE118E0632852
:102B300035D0642879D0652812D195E1702873D0FA
:102B400008DC6728F1D069286FD06E280DD06F2877
:102B500006D1B5E073282CD0752875D0782874D0AC
:102B60005A46179990476D1C75E1C4F3025002282C
:102B700009D003280DD0D9F8001004280DD00D601D
:102B800009F1040967E1D9F80010EA17C1E9005218
:102B9000F6E7D9F800100D80F2E70D70F0E719F8AC
:102BA000041B8DF8001000208DF80100EA4601207A
:102BB00003E059F804AB4FF0FF3061074FF000011C
:102BC00002D40DE008F101018846B9420FDA8045D0
:102BD000F8DB1AF808100029F4D108E008F1010127
:102BE00088468142FADB1AF808100029F6D10598C8
:102BF0005B46A0EB080721463846179A00F097FA83
:102C0000284400EB080507E04DE029E10DE01AF843
:102C1000010B5A4617999047B8F10108F7D25B4665
:102C200021463846179A13E142E00A220092C4F383
:102C300002524FF0000A022A08D059F804CB032AA6
:102C40004FEAEC710AD00DE029E02AE009F1070112
:102C500021F00702F2E802C1914609E00FFA8CFC6C
:102C60004FEAEC71042A03D14FFA8CFC4FEAEC7165
:102C7000002907DA0A460021DCF1000C61EB0201B1
:102C80002D2202E0220504D52B228DF804200122FA
:102C900003E0E20701D02022F7E7904659E00A213D
:102CA00002E010220DE010214FF0000A00910BE02D
:102CB00010224FF0000A44F004040827009203E0B9
:102CC00008224FF0000A0092C4F30252022A05D0F3
:102CD00059F804CB0021032A08D009E009F10701C3
:102CE00021F00702F2E802C1914605E01FFA8CFCD0
:102CF000042A01D10CF0FF0C4FF00008220728D560
:102D0000702806D0009B83F0100353EA0A0305D015
:102D10000EE040228DF80420012208E05CEA010266
:102D200006D030228DF804208DF80500022290464E
:102D3000009B83F0080353EA0A030AD15CEA01020C
:102D400001D1620705D530228DF804204FF001082B
:102D50007F1E582804D034A003900EA802900DE0E6
:102D600036A0F9E753466046009AFDF72BFA8446F1
:102D70000398825C0298401E029002705CEA010097
:102D8000F0D1029806A9081A00F1200A600702D5BE
:102D900024F4803400E00127574502DDA7EB0A0048
:102DA00000E0002000EB0A01009005984144401A21
:102DB0000590E00306D45B462146179A059800F07B
:102DC000B6F90544002706E001A85A46C05D1799E8
:102DD00090476D1C7F1C4745F6DBE0030CD55B4636
:102DE0002146179A059800F0A2F9054404E0302026
:102DF0005A46179990476D1C0099481E009000296B
:102E0000F5DC08E0029802995A460078491C0291C4
:102E1000179990476D1CBAF10001AAF1010AF1DC83
:102E200065E100000928010030313233343536378E
:102E30003839616263646566000000003031323306
:102E400034353637383941424344454600000000A6
:102E500000F05BF90544761C307800287FF4ECAD77
:102E600019B0284600F04EB9620700D4062709F1D0
:102E7000070222F0070CFCE80223E14603F00048B9
:102E80005FEA080C02D00FF2702C0DE05FEA045CE0
:102E900002D50FF2682C07E05FEAC47C02D00FF283
:102EA000602C01E0AFF2700C4FF0FF3823F00043CC
:102EB000CDF850C065280CD006DC452809D046283E
:102EC0001DD047283DD13DE0662818D067287ED127
:102ED00038E00021112F01DB112000E0781CCDE942
:102EE000000106A90EA8FFF7D9FCDDE90F010E9A33
:102EF00003910021009207F1010A04914DE04FF087
:102F000000400097CDE9011006A90EA8FFF7C6FC06
:102F1000DDE90F0203920E9B11990022DDF80CA04F
:102F20000093049211B9791C00EB010AB7EB0A0077
:102F300004D4C0F1FF3007F1010A0490AAEB0700A6
:102F4000019044E0012F00DA01270021112F01DD5B
:102F5000112000E03846CDE9000106A90EA8FFF7D0
:102F60009DFCDDE90F010E9A03910021049100926E
:102F7000BA4621070CD40399514500DA8A46BAF1C2
:102F8000010F05DD009AAAF10101515C302908D03A
:102F9000B84202DA10F1040F06DA0121CDE901107E
:102FA00015E0AAF10101E9E7002805DC04990144D4
:102FB0000491AAEB000102E0411C514500DD8A4664
:102FC0000499401A401C01904FF0004002902007E5
:102FD00004D40198504501DBCDF8048000208DF821
:102FE0004F0002980DF14F07B0F1004F25D02B2074
:102FF0000E9002984FF0020800280CDA404202902E
:103000002D200E9007E00A210298FDF794FA303146
:10301000029007F8011DB8F10001A8F10108F2DCE7
:1030200002980028EFD1791E0E980870307800F0D1
:10303000200040F0450007F8020D12A8C01B00F167
:1030400007081498007800B1012000EB0A010198EC
:1030500001EBE07105984144401A401E0590E003E1
:1030600006D45B462146179A059800F060F805449F
:103070001498007818B15A46179990476D1CE003D0
:1030800024D55B462146179A059800F050F8054470
:103090001CE00498002807DBDDE90301884203DD1A
:1030A0000098405C179901E0179930205A469047E4
:1030B000049805F10105401C04900198401E019000
:1030C00004D12E205A46179990476D1CBAF1000181
:1030D000AAF1010ADDDC05E017F8010B5A46179941
:1030E00090476D1CB8F10001A8F10108F4DC5B46C3
:1030F0002146179A0598ABE62D0000002B00000032
:103100002000000030BCBDE8C08F2DE9F04104462E
:1031100000251E461746880404D405E039462020C1
:10312000B0476D1C641EF9D52846BDE8F0812DE935
:10313000F041044600251E469046C80301D53027BD
:1031400000E02027880404D505E041463846B04712
:103150006D1C641EF9D52846BDE8F0810A68531C31
:103160000B60107070471A214843401EFDD2704713
:1031700013B54FF6FF73012269460248FEF7C4FEFD
:1031800000981CBD780100201CB59FED180A14237F
:103190008DED000A8DED010A1C2215A11B48FEF7DA
:1031A000B3FE01A96846FDF75BFB00281CD19DED2D
:1031B000000A174A10EE101A1648914206DCB5EEC6
:1031C000C00AF1EE10FA01DD80ED060A9DED010A5C
:1031D000114A10EE101A914206DCB5EEC00AF1EE6B
:1031E00010FA01DD80ED000A1CBD000000000000A7
:1031F00068756D2D74656D702D64617461206765EF
:10320000742D2D2D2D2D2D2D0A000000780100206C
:1032100000004842000000200000C84208B5FDF749
:103220007FFEFFF724F8FEF7CDFEFDF7E5FBF9483A
:10323000816C41F001018164806C002200F001008A
:10324000009011461020FDF7C1FE1020FDF7B0FEE2
:10325000002211461120FDF7B9FE1120FDF7A8FE4E
:10326000FEF7FEFEFEF712FFEB496422A1F5807027
:10327000FEF7FAFDE9480068016841F010010160BD
:10328000002202214FF09040FDF736FEE248142361
:103290000822E3A18038FEF737FE42F2107630466E
:1032A000FDF734FD6421DC48FCF7C7FFDA4814233E
:1032B0000822DEA18038FEF727FE6421D648FCF7FD
:1032C000BCFF6420FDF722FD4FF4967423460422D0
:1032D000D9A1D248FEF718FE6420FDF717FD4FF480
:1032E0007A771BE06421CC48FCF7A7FF3846FDF74E
:1032F0000DFDC9480A231A46D1A18038FEF704FE05
:1033000023460422CCA1C548FEF7FEFD6420FDF74C
:10331000FDFCCEA1C048FCF79BFF28B9CBA1BE485D
:10332000FCF796FF0028DDD023460B22C8A1BB483E
:10333000FEF7EAFD6420FDF7E9FC4FF47A6522E030
:10334000B54923461422A1F18000FEF7DDFD64217A
:10335000B148FCF772FF2846FDF7D8FCAE4823467B
:103360000722BEA18038FEF7CFFD23460B22B8A16D
:10337000AA48FEF7C9FD3846FDF7C8FCB9A1A64822
:10338000FCF766FF28B9B7A1A348FCF761FF002846
:10339000D6D023460B22B5A1A048FEF7B5FD642088
:1033A000FDF7B4FC25E09C4923461422A1F18000DE
:1033B000FEF7AAFD2846FDF7A9FC64219648FCF714
:1033C0003CFF2846FDF7A2FC934823460622AAA10B
:1033D0008038FEF799FD23460B22A4A18F48FEF703
:1033E00093FD3846FDF792FCA5A18B48FCF730FF12
:1033F00028B9A6A18848FCF72BFF0028D3D0234684
:103400000F22A5A18548FEF77FFD6420FDF77EFC15
:1034100040F6B8381FE0804923461422A1F180000D
:10342000FEF772FD64217C48FCF707FF4046FDF77C
:103430006DFC794823460B229BA18038FEF764FD82
:1034400023460F2294A17548FEF75EFD7FA17248C6
:10345000FCF7FEFE28B97DA16F48FCF7F9FE0028B5
:10346000D9D023460C2293A16C48FEF74DFD642071
:10347000FDF74CFC2F461FE0674923461422A1F1BB
:103480008000FEF741FD64216348FCF7D6FE384614
:10349000FDF73CFC6048234606228AA18038FEF7EF
:1034A00033FD23460C2283A15C48FEF72DFD67A166
:1034B0005948FCF7CDFE28B964A15748FCF7C8FE6F
:1034C0000028D9D04FF4FA752B4632227FA15348F9
:1034D000FEF71AFD6420FDF719FC19E04E4923465A
:1034E0001422A1F18000FEF70FFD64214A48FCF789
:1034F000A4FE3046FDF70AFC4748234606227EA17B
:103500008038FEF701FD7FA14348FCF7A1FE28B9F2
:103510007CA14148FCF79CFE0028DFD02346162200
:103520007CA13E48FEF7F0FC6420FDF7EFFB19E0BC
:10353000394923461422A1F18000FEF7E5FC6421FD
:103540003548FCF77AFE3846FDF7E0FB3248234663
:103550000C2276A18038FEF7D7FC77A12E48FCF725
:1035600077FE28B974A12C48FCF772FE0028DFD042
:1035700026462346182274A12848FEF7C5FC64207D
:10358000FDF7C4FB764F774C19E0234933461422EC
:10359000A1F18000FEF7B8FC64211F48FCF74DFE46
:1035A0004046FDF7B3FB1C4833460C226EA1803821
:1035B000FEF7AAFC6FA11848FCF74AFE28B96DA1D6
:1035C0001548FCF745FE0028DFD03E466068401EE7
:1035D0006060401C1DD06CA10F48FCF739FE48B15B
:1035E00000221C213046FDF787FC0A20FDF78EFBE8
:1035F00067A0E0E06DA10848FCF72AFE40B1012277
:103600001C213046FDF778FC0A20FDF77FFBD1E056
:10361000D7E0DAE000100240F8010020F8000020B6
:1036200064656C61793130730D0A000041542B439D
:1036300053510D0A0000000041540D0A0000000023
:1036400041542D6572726F720D0A00004F4B0000DD
:1036500041542B43474154543F0D0A0043474154C2
:10366000540D0A0043474154543A310041542B430E
:10367000455245473F0D0A0043455245470D0A0054
:1036800043455245473A302C3100000043455245EE
:10369000472C302C3100000041542B4345445258F4
:1036A000533D302C350D0A004345445258530D0A02
:1036B0000000000041542B4350534D533D300D0A40
:1036C000000000004350534D530D0A0041542B514C
:1036D0004D544F50454E3D302C226C62736D7174C9
:1036E000742E6169726D326D2E636F6D222C3138CC
:1036F00038330D0A00000000514D544F50454E0D17
:103700000A0000002B514D544F50454E3A20302CAA
:103710003000000041542B514D54434F4E4E3D302C
:103720002C2261696F74220D0A000000514D544330
:103730004F4E4E0D0A0000002B514D54434F4E4E3C
:103740003A20302C302C300041542B514D545355DD
:10375000423D302C312C224C4544222C300D0A00A5
:10376000000C004800000020514D545355420D0AF2
:10377000000000002B514D545355423A20302C315B
:103780002C302C3000000000696E6C65643A31000A
:103790002D2D2D2D2D2D2D2D2D4C45442D4F5045AE
:1037A0004E2D2D2D2D2D2D2D2D0D0A00696E6C65A4
:1037B000643A300008A0FFF72DF864210E48FCF7AA
:1037C0003CFD0A20FDF7A2FA00E76560FFF7DCFC8C
:1037D00000F014F8FAE600002D2D2D2D2D2D2D2DA5
:1037E0002D4C45442D434C4F53452D2D2D2D2D2D26
:1037F0002D2D0D0A00000000F801002070B5294CA5
:1038000088B02068FCF768FE05460E46A069FCF704
:1038100063FE024660690495CDE905602069009267
:10382000CDE9011020A12448E268FFF703F82248FF
:10383000FCF720FD0346204820A16438A268FEF76B
:10384000F9FF1D491FA06439FEF7E4FF1A491FA0C4
:10385000FEF7E0FF18486438FCF70CFD164982B209
:1038600064394FF4FA7301F1C800FEF74DFB4FF4D1
:103870007A70FDF74BFA1048FCF7FCFC0E4982B257
:103880004FF4967301F16400FEF73EFB0A48642191
:103890006438FCF7D2FC08B06421BDE870400648EB
:1038A000FCF7CBBC000000202573252E3266257363
:1038B000252E3266257300009400002025732564B0
:1038C0000D0A0000442D413D25730000442D423D6A
:1038D0002573000000000000000000000102030446
:1038E00006070809A0860100400D0300801A0600A3
:1038F00000350C0040420F0080841E0000093D008E
:1039000000127A000024F40000366E010048E8013D
:10391000006CDC02000000000102030441542B5142
:103920004D545055423D302C302C302C302C226DD3
:1039300071686F6D65222C002C2268756D69223AC2
:10394000000000007B2274656D70223A00000000C8
:103950007D000000743900080000002030000000E5
:103960007C280008A439000830000020C0060000B0
:103970008C28000800000000F40100001C39000839
:1039800044390008383900085039000800000000A8
:1039900001000000100000000000000000093D00D0
:0439A0000000000023
:040000050800018D61
:00000001FF
